:100000000C9463000C948B000C948B000C948B006C
:100010000C948B000C948B000C948B000C948B0034
:100020000C948B000C948B000C948B000C943A0A6B
:100030000C948B000C948B000C948B000C948B0014
:100040000C94D1080C948B000C949F080C947908A4
:100050000C948B000C948B000C948B000C948B00F4
:100060000C941B090C948B00000000002400270056
:100070002A0000000000250028002B0000000000DE
:1000800023002600290004040404040404040202DA
:100090000202020203030303030301020408102007
:1000A0004080010204081020010204081020000012
:1000B0000008000201000003040700000000000027
:1000C0000000F60A9C0F11241FBECFEFD8E0DEBF60
:1000D000CDBF11E0A0E0B1E0E8E1F9E202C0059097
:1000E0000D92AA33B107D9F722E0AAE3B1E001C02B
:1000F0001D92AA3EB207E1F710E0C2E6D0E004C0CC
:100100002197FE010E948712C136D107C9F70E94CC
:10011000C30B0C947F140C9400008F929F92AF92AB
:10012000BF92FF920F931F93CF93DF93F090E30260
:100130002BE02F1508F44CC02091E50208E512E0F1
:10014000021B110927FD1395000F111F000F111F2E
:100150002091E402C8E8D0E0C21BD10927FDD39565
:10016000CC0FDD1FCC0FDD1F4E010D2E000CAA0899
:10017000BB089801012E000C440B550B28193909B6
:100180004A095B09DC010E94F31024EB30E040E0F7
:1001900050E00E94C910820E931EA41EB51E8C163C
:1001A0009D062CF0E801801691060CF4E4012297DC
:1001B000CC0FDD1F2FB7F8948F2D90E0FC01EE0FD0
:1001C000FF1FE80FF91FE156FD4FD283C1832FBFF8
:1001D000DF91CF911F910F91FF90BF90AF909F90B3
:1001E0008F90089508950895AF92BF92CF92DF92B5
:1001F000EF92FF920F931F93CF93DF936C017B01DC
:100200008B01040F151FEB015E01AE18BF08C0176C
:10021000D10759F06991D601ED91FC910190F081DF
:10022000E02DC6010995892B79F7C501DF91CF91A2
:100230001F910F91FF90EF90DF90CF90BF90AF9004
:100240000895FC01538D448D252F30E0842F90E0DC
:10025000821B930B541710F0CF96089501970895C1
:10026000FC01918D828D981761F0A28DAE0FBF2F8A
:10027000B11D5D968C91928D9F5F9F73928F90E0E0
:1002800008958FEF9FEF0895FC01918D828D98174F
:1002900031F0828DE80FF11D858D90E008958FEF8C
:1002A0009FEF0895FC01918D228D892F90E0805C55
:1002B0009F4F821B91098F739927089582E092E0E6
:1002C0000E94520121E0892B09F420E0822F089539
:1002D00080E090E0892B29F00E945E0181110C944E
:1002E00000000895FC01A48DA80FB92FB11DA35AD9
:1002F000BF4F2C91848D90E001968F739927848F46
:10030000A689B7892C93A089B1898C918370806468
:100310008C93938D848D981306C00288F389E02D09
:1003200080818F7D80830895EF92FF920F931F93BA
:10033000CF93DF93EC0181E0888F9B8D8C8D981398
:100340001AC0E889F989808185FF15C09FB7F894A4
:10035000EE89FF896083E889F989808183708064F0
:1003600080839FBF81E090E0DF91CF911F910F913B
:10037000FF90EF900895F62E0B8D10E00F5F1F4F4A
:100380000F731127E02E8C8D8E110CC00FB607FC59
:10039000FACFE889F989808185FFF5CFCE010E94E7
:1003A0007201F1CFEB8DEC0FFD2FF11DE35AFF4FE2
:1003B000F0829FB7F8940B8FEA89FB898081806275
:1003C000CFCFCF93DF93EC01888D8823B9F0AA8932
:1003D000BB89E889F9898C9185FD03C0808186FD00
:1003E0000DC00FB607FCF7CF8C9185FFF2CF80814F
:1003F00085FFEDCFCE010E947201E9CFDF91CF9151
:100400000895833081F028F4813099F08230A9F08A
:1004100008958730A9F08830C9F08430B1F4809114
:1004200080008F7D03C0809180008F778093800053
:10043000089584B58F7784BD089584B58F7DFBCFF3
:100440008091B0008F778093B00008958091B000C4
:100450008F7DF9CFCF93DF93282F30E0F901E2555C
:10046000FF4F8491F901E656FF4FD491F901EA5705
:10047000FF4FC491CC23A1F081110E940102EC2F07
:10048000F0E0EE0FFF1FE458FF4FA591B491EC91FF
:10049000ED2381E090E009F480E0DF91CF910895B1
:1004A00080E090E0FACF1F93CF93DF93282F30E0C6
:1004B000F901E255FF4F8491F901E656FF4FD491BF
:1004C000F901EA57FF4FC491CC23A9F0162F8111EF
:1004D0000E940102EC2FF0E0EE0FFF1FEE58FF4FDD
:1004E000A591B4918FB7F894EC91111108C0D095F3
:1004F000DE23DC938FBFDF91CF911F910895DE2B18
:10050000F8CFCF93DF9390E0FC01E656FF4F2491A4
:100510008A579F4FFC0184918823D1F090E0880F87
:10052000991FFC01E859FF4FA591B491FC01EE58C9
:10053000FF4FC591D49161110EC09FB7F8948C9173
:10054000E22FE0958E238C932881E223E8839FBFDE
:10055000DF91CF9108958FB7F894EC91E22BEC9353
:100560008FBFF6CF3FB7F8948091800190918101C1
:10057000A0918201B091830126B5A89B05C02F3FB1
:1005800019F00196A11DB11D3FBFBA2FA92F982FB9
:100590008827BC01CD01620F711D811D911D42E0B4
:1005A000660F771F881F991F4A95D1F708958F927C
:1005B0009F92AF92BF92CF92DF92EF92FF924B0148
:1005C0005C010E94B2026B017C010E94B2026C19B4
:1005D0007D098E099F09683E734081059105A8F346
:1005E00021E0821A9108A108B10888EEC80E83E0C4
:1005F000D81EE11CF11C81149104A104B10429F757
:10060000FF90EF90DF90CF90BF90AF909F908F9032
:10061000089520915C01260F3327331F21323105C5
:10062000ECF42091D801FC0190E080E0243069F0E6
:1006300082E00895A0915C012191AC01445C5E4F81
:10064000A40FB52FB11D2C930196861798F38091B6
:100650005C01680F60935C0180E0089581E008957B
:100660001092D80181E08093D7011092B20161E02D
:1006700082E10E94530261E083E10E945302E9EBB0
:10068000F0E080818E7F808380818D7F808388E40D
:100690008093B80085E48093BC000895CF93DF93E6
:1006A00091E090933B018823B9F0C091B800D091BC
:1006B000BA008091BC008A7B8093BC0060E082E13C
:1006C0000E94530260E083E10E9453020E943003C3
:1006D000D093BA00C093B800DF91CF9108958F9264
:1006E0009F92AF92BF92CF92DF92EF92FF920F93C1
:1006F0001F93CF93DF93D0910102D13208F0D7C07E
:10070000182FC09100020E94B2026B017C018091FF
:10071000D80181116BC082E08093D8011093D7017A
:100720008FEF8093D6011092D501D093D401A0EE23
:10073000B1E0E4EBF1E080E0D81391C01092B30196
:100740008091B301CC0FC82BC093B3018091B2014B
:10075000813009F088C01092B2010E94B2026B0190
:100760007C018091B3018093BB008091DA0190916C
:10077000DB01A091DC01B091DD01892B8A2B8B2B51
:10078000A1F00E94B2020091DA011091DB012091E8
:10079000DC013091DD016C197D098E099F09061776
:1007A00017072807390708F442C08091BC0083FD71
:1007B000D8CF85EC8093BC000E94B2026B017C0113
:1007C0008091D801823009F450C08091D6018F3FCA
:1007D00009F46FC08091D601803209F46CC0809119
:1007E000D601803309F469C084E026C08091DA0123
:1007F0009091DB01A091DC01B091DD01892B8A2B66
:100800008B2B09F484CF0E94B2028090DA01909081
:10081000DB01A090DC01B090DD016C197D098E092F
:100820009F0986169706A806B90608F070CF809132
:10083000D9010E944E0385E01092DF01109201025F
:100840001092DE01DF91CF911F910F91FF90EF90F9
:10085000DF90CF90BF90AF909F908F9008959D9123
:1008600091938F5F69CF85EEA5CF8091DA0190914A
:10087000DB01A091DC01B091DD01892B8A2B8B2B50
:1008800009F49ECF0E94B2020091DA011091DB01BF
:100890002091DC013091DD016C197D098E099F09E1
:1008A000061717072807390708F08ACFC0CF81E05D
:1008B000C3CF80E0C1CF82E0BFCF83E0BDCF08953A
:1008C000E091910180919001E81730F4F0E0EE564C
:1008D000FE4F808190E008958FEF9FEF08959091F3
:1008E0009101809190012FEF3FEF981748F4E92F85
:1008F000F0E0EE56FE4F208130E09F5F9093910133
:10090000C90108958091900190919101891B990BE3
:100910000895CF92DF92EF92FF920F931F93CF93A0
:10092000DF937C01CB018A012091DE01222389F033
:10093000EB016B01C40ED51ECC15DD0569F0699184
:10094000D701ED91FC910190F081E02DC70109954F
:10095000F3CF642F0E940903C801DF91CF911F914B
:100960000F91FF90EF90DF90CF900895CF93DF939A
:100970001F92CDB7DEB769832091DE012223F9F003
:1009800020910102203258F021E030E0FC01338355
:10099000228390E080E00F90DF91CF9108958091C5
:1009A000DF01E82FF0E0E052FE4F998190838F5FE6
:1009B0008093DF018093010281E090E0ECCF61E061
:1009C000CE0101960E940903F7CF90E080E00895E0
:1009D000CF93DF93EC018B818823A1F0888191E094
:1009E0009093DE01809300021092DF0110920102C9
:1009F00081E00E946F0391E0811190E0892FDF91E7
:100A0000CF91089510929101109290011092DF0100
:100A1000109201020E94300382EF90E090938701D0
:100A20008093860183EF90E0909385018093840109
:100A300081E08B83CE010E94E804982F8111CECFF4
:100A4000DDCF2F923F924F925F926F927F928F9263
:100A50009F92AF92BF92CF92DF92EF92FF920F934D
:100A60001F93CF93DF935C011B016A01F12CE12CF2
:100A7000D50114968D919C9186010E191F0980173E
:100A8000910708F48C01F501D0810E94B2022B017C
:100A90003C018091D801811172C0C02F013208F051
:100AA000C0E2F1E0F093D80121E0C601801B910B78
:100AB000E816F90608F420E02093D7018FEF809321
:100AC000D6011092D5018C0F8093D401A1E0A093A0
:100AD000B3018091B301DD0FD82BD093B301809186
:100AE000B201813009F090C01092B2010E94B202AE
:100AF0002B013C018091B3018093BB008091DA010E
:100B00009091DB01A091DC01B091DD01892B8A2B52
:100B10008B2BA1F00E94B2022091DA013091DB010F
:100B20004091DC015091DD0164197509860997092E
:100B3000261737074807590708F442C08091BC00C0
:100B400083FDD8CFB5ECB093BC000E94B2022B015C
:100B50003C018091D801813009F45AC08091D501BF
:100B60008C1710F4C091D501A4EBB1E0E2E9F1E0FB
:100B700080E08C1751F19D9191938F5FFACF809116
:100B8000DA019091DB01A091DC01B091DD01892BAC
:100B90008A2B8B2B09F47DCF0E94B2022091DA01BF
:100BA0003091DB014091DC015091DD016419750940
:100BB00086099709261737074807590708F069CFAC
:100BC0008091D9010E944E03C0E010929101C09320
:100BD0009001C017110609F057C041018E0C9F1CEF
:100BE000E401CE01881999098017910798F5D5017C
:100BF00011968D919C91DC01ED91FC910284F3851D
:100C0000E02D09958993EDCFE5EEE093BC009DCFF3
:100C10008091DA019091DB01A091DC01B091DD01BE
:100C2000892B8A2B8B2B09F494CF0E94B20220913E
:100C3000DA013091DB014091DC015091DD01641952
:100C4000750986099709261737074807590708F0D5
:100C500080CFB6CFE00EF11EEC14FD0408F408CFEF
:100C600081E0DF91CF911F910F91FF90EF90DF9086
:100C7000CF90BF90AF909F908F907F906F905F903C
:100C80004F903F902F90089580E0EBCF1F93CF932C
:100C9000DF93DC011496ED91FC91E417F50710F455
:100CA00090E01FC0122FEA01FC0181819281208116
:100CB00031E03093DE01209300021092DF011092A8
:100CC0000102DC01ED91FC910280F381E02D099598
:100CD000C817D90729F7812F0E946F0391E081116E
:100CE000DFCF892FDF91CF911F910895EF92FF926F
:100CF0000F931F93CF93DF93EC01790120E00E94C3
:100D00004606882359F0A801B701CE01DF91CF91A3
:100D10001F910F91FF90EF900C94210580E0DF91DF
:100D2000CF911F910F91FF90EF9008950F931F9314
:100D3000CF93DF931F92CDB7DEB787EE898301E0B3
:100D400010E09E012F5F3F4F41E050E0B9018091DC
:100D5000E1029091E2020E94760689810F90DF9174
:100D6000CF911F910F910895FC0101900020E9F7A8
:100D70003197AF01481B590BBC0182E092E00C9403
:100D8000F4008F929F92AF92BF920F931F93CF93D5
:100D9000DF93CDB7DEB7A1970FB6F894DEBF0FBED5
:100DA000CDBF19A2423008F44AE08E010F5D1F4FFB
:100DB000842E912CB12CA12CA50194010E943211FA
:100DC000E62FB901CA01EA30F4F4E05DD801EE93F0
:100DD0008D01232B242B252B79F790E080E01097B1
:100DE00019F0CD010E94B406A1960FB6F894DEBFAB
:100DF0000FBECDBFDF91CF911F910F91BF90AF90EC
:100E00009F908F900895E95CE1CFCF92DF92EF92AF
:100E1000FF92CF93DF936C01990FEE08FF08F7FE66
:100E20001FC06DE282E092E00E949401EC0166270F
:100E30007727CB016C197D098E099F094AE00E9432
:100E4000C106C80FD91F8AE291E00E94B4068C0F38
:100E50009D1FDF91CF91FF90EF90DF90CF9008958D
:100E60004AE0C701B6010E94C106EC01ECCF4F92E7
:100E70005F926F927F928F929F92AF92BF92CF922A
:100E8000DF92EF92FF920F931F93CF936B017C0140
:100E9000742EAC019B010E947612882399F08DE29A
:100EA00091E0CF911F910F91FF90EF90DF90CF9045
:100EB000BF90AF909F908F907F906F905F904F907A
:100EC0000C94B40646015701E894B7F82FEF3FEFB2
:100ED0004FE75FE7C501B4010E94761281110DC092
:100EE0002FEF3FEF4FE75FE7C501B4010E94A50F69
:100EF00018161CF481E391E0D4CF2FEF3FEF4FE7BA
:100F00005FE4C701B6010E94711218161CF485E354
:100F100091E0C7CF2FEF3FEF4FE75FECC701B6017E
:100F20000E94A50F87FDF3CF20E030E0A901C701A3
:100F3000B6010E94A50F10E000E087FF0AC06DE235
:100F400082E092E00E9494018C01F7FAF094F7F8A5
:100F5000F094C0E060E070E080E09FE37C1641F038
:100F600020E030E040E251E40E94D011CF5FF6CFA4
:100F7000A70196010E9464112B013C010E944212BC
:100F80004B015C014AE00E94C1067C01E00EF11EAB
:100F9000CC23C1F1C501B4010E94AA0F9B01AC0191
:100FA000C301B2010E9463114B015C016EE282E059
:100FB00092E00E949401E80EF91EC15018F120E061
:100FC00030E040E251E4C501B4010E940B102B0156
:100FD0003C010E9442124B01B12CA12C4AE0C501F8
:100FE000B4010E94C106E80EF91EC501B4010E94B9
:100FF000AA0F9B01AC01C301B2010E9463114B0116
:101000005C01DBCFC701CF911F910F91FF90EF9053
:10101000DF90CF90BF90AF909F908F907F906F9018
:101020005F904F900895CF93DF93EC018091C402BD
:101030009091C502009759F02091C6023091C702E5
:101040002C173D0720F081E0DF91CF910895BE017C
:101050006F5F7F4F0E94B213009789F09093C50293
:101060008093C402D093C702C093C6022091C802E5
:101070003091C902232B39F7FC011082E4CF80E0C4
:10108000E3CF85ED8093BC008091DA019091DB0184
:10109000A091DC01B091DD010796A11DB11D23E0F7
:1010A000B695A795979587952A95D1F72091BC007D
:1010B00024FD03C01092D80108954091DA015091A7
:1010C000DB016091DC017091DD01452B462B472B44
:1010D00069F30097A105B10541F025E32A95F1F7E1
:1010E00000000197A109B109E1CF8091D9010C94C9
:1010F0004E031F920F920FB60F9211242F933F931E
:101100004F935F936F937F938F939F93AF93BF930F
:10111000EF93FF9382E092E00E947201FF91EF91C2
:10112000BF91AF919F918F917F916F915F914F91FF
:101130003F912F910F900FBE0F901F9018951F9207
:101140000F920FB60F9211242F938F939F93EF93CB
:10115000FF93E0911202F09113028081E091180256
:10116000F091190282FD1BC0908180911B028F5F5C
:101170008F7320911C02821741F0E0911B02F0E076
:10118000EE5FFD4F958F80931B02FF91EF919F9132
:101190008F912F910F900FBE0F901F901895808107
:1011A000F4CF1F920F920FB60F9211242F933F93FB
:1011B0008F939F93AF93BF93809188019091890102
:1011C000A0918A01B0918B0130917F0123E0230F20
:1011D0002D3758F50196A11DB11D20937F018093F5
:1011E000880190938901A0938A01B0938B0180912B
:1011F000800190918101A0918201B09183010196BB
:10120000A11DB11D8093800190938101A093820163
:10121000B0938301BF91AF919F918F913F912F9197
:101220000F900FBE0F901F90189526E8230F02967F
:10123000A11DB11DD2CF1F920F920FB60F92112494
:101240002F933F934F935F936F937F938F939F93CE
:10125000AF93BF93EF93FF938091B900887F80365F
:1012600009F44AC0F0F5883209F4A7C018F58031B6
:1012700009F49BC0B8F4882309F4F9C0883009F454
:1012800094C0FF91EF91BF91AF919F918F917F910A
:101290006F915F914F913F912F910F900FBE0F90E3
:1012A0001F901895883109F488C0803251F78093D7
:1012B000D60114C0803409F49DC040F48033B9F3E2
:1012C0008833F9F68093D60185ECB0C0803509F4F7
:1012D00085C0883509F496C0883499F60E94410883
:1012E000D0CF883909F48CC038F5883729F050F40C
:1012F000883611F0803729F683E08093D801109268
:101300007E0157C0883809F47BC0803919F08038D5
:1013100009F0B7CF80917E01803208F071C0E09172
:101320007E0181E08E0F80937E018091BB00F0E012
:10133000E25AFE4F80833DC0803B39F0E0F4803AB2
:1013400009F479C0883A09F09CCF84E08093D801F1
:1013500010925D0110925C01E0918601F09187018D
:10136000099580915C0181110FC081E080935C013F
:1013700010923C0109C0803C09F4A6CF883C09F4D6
:10138000A3CF883B09F07DCFE0915D0181E08E0F16
:1013900080935D01F0E0E45CFE4F80818093BB00B0
:1013A00090915D0180915C0129C08091B30180938F
:1013B000BB0085EC8093BC0064CF9091D5018091F7
:1013C000D401981758F5E091D50181E08E0F8093F4
:1013D000D501F0E0EC54FE4F8081E9CFE091D501DA
:1013E00081E08E0F8093D5018091BB00F0E0EC543A
:1013F000FE4F80839091D5018091D4019817C8F257
:1014000085E8D8CFE091D50181E08E0F8093D5019A
:101410008091BB00F0E0EC54FE4F80838091D701B7
:1014200081115CCF81E08093B20184EA8093BC009B
:101430001092D80126CF85EC8093BC001092D80181
:1014400080917E01803230F4E0917E01F0E0E25A3A
:10145000FE4F108260917E0170E0E0918401F09176
:1014600085018EE591E0099510927E010ACF1092D8
:10147000D60134CF1F920F920FB60F9211242F93E3
:101480003F934F935F936F937F938F939F93AF930C
:10149000BF93CF93DF93EF93FF9380913A01C09175
:1014A000C302D0E087FF24C0109285001092840010
:1014B00080913A018F5F80933A0180913A01082E22
:1014C000000C990B8C179D0724F480913A018C3005
:1014D000C4F18091840090918500049680349C49E9
:1014E00008F47AC08091840090918500049676C0BB
:1014F00080913A01082E000C990B8C179D07C4F6B9
:10150000E0913A018E2FEE0F990BFC01EE0FFF1FB9
:10151000E80FF91FE156FD4F808186FFC9CFE091AA
:101520003A018E2FEE0F990BFC01EE0FFF1FE80F13
:10153000F91FE156FD4F808160E08F730E945302D6
:10154000B7CF2091840030918500E0913A018E2F31
:10155000EE0F990BFC01EE0FFF1FE80FF91FE1568C
:10156000FD4F81819281820F931F90938900809318
:101570008800E0913A018E2FEE0F990BFC01EE0FDF
:10158000FF1FE80FF91FE156FD4F808186FF11C054
:10159000E0913A018E2FEE0F990BFC01EE0FFF1F29
:1015A000E80FF91FE156FD4F808161E08F730E94C3
:1015B0005302FF91EF91DF91CF91BF91AF919F9136
:1015C0008F917F916F915F914F913F912F910F90EC
:1015D0000FBE0F901F90189580E49CE990938900AE
:1015E000809388008FEF80933A01E3CF1092050239
:1015F0001092040288EE93E0A0E0B0E0809306022F
:1016000090930702A0930802B09309022AE031E008
:10161000309303022093020225EC30E030930F0256
:1016200020930E0224EC30E030931102209310023C
:1016300020EC30E0309313022093120221EC30E0D2
:10164000309315022093140222EC30E030931702FD
:101650002093160226EC30E03093190220931802F2
:1016600010921B0210921C0210921D0210921E0278
:101670001092CD021092CC028093CE029093CF02B2
:10168000A093D002B093D1028CE191E09093CB0271
:101690008093CA028091C3028C3008F067C091E049
:1016A000980F9093C3028093E30290E0FC01EE0F49
:1016B000FF1FE80FF91FE156FD4F88EB9BE0928377
:1016C000818386E090E00E948D12FC0180E480839B
:1016D0008AEC92E092838183138280E290E095838A
:1016E0008483F093E202E093E1021092DA02109216
:1016F000DB021092DC021092DD021092D6021092F0
:10170000D7021092D8021092D90284E090E0909310
:10171000DF028093DE021092E0021092C502109266
:10172000C4021092C7021092C6021092C90210920F
:10173000C80290E080E00E9413082091C40230911A
:10174000C502811117C02115310519F0C9010E9488
:1017500029131092C5021092C4021092C90210926D
:10176000C8021092C7021092C60208958FEF8093AC
:10177000E302A7CF1092C9021092C8026CE271E096
:10178000C9010C947814CF93DF93CDB7DEB72897B7
:101790000FB6F894DEBF0FBECDBF789484B58260DB
:1017A00084BD84B5816084BD85B5826085BD85B505
:1017B000816085BD80916E00816080936E00109283
:1017C00081008091810082608093810080918100FE
:1017D000816080938100809180008160809380008F
:1017E0008091B10084608093B1008091B0008160ED
:1017F0008093B00080917A00846080937A00809119
:101800007A00826080937A0080917A008160809370
:101810007A0080917A00806880937A001092C100EB
:10182000E0911202F091130282E08083E0911202B3
:10183000F09113021082E0910E02F0910F021082DB
:10184000E0911002F091110280E1808310921A025F
:10185000E0911602F091170286E08083E091140275
:10186000F0911502808180618083E0911402F091F3
:101870001502808188608083E0911402F091150246
:10188000808180688083E0911402F091150280814C
:101890008F7D80838091E3028C3008F051C061E03D
:1018A00084E00E9481028091E302282F30E0F90158
:1018B000EE0FFF1FE20FF31FE156FD4F9081907C6A
:1018C000946090831092E4021092E5022CE0622F63
:1018D0000E947B12829FB001112430E020E0AB0116
:1018E000420F531FFA01EE0FFF1FE40FF51FE156E1
:1018F000FD4F908196FD16C02F5F3F4F2C30310574
:1019000071F781110FC01092800082E080938100F6
:101910001092850010928400B19A80916F008260CD
:1019200080936F00E091E3028E2F90E0FC01EE0FB8
:10193000FF1FE80FF91FE156FD4F8081806480830F
:101940000091E1021091E202109291011092900137
:101950001092DF01109201020E94300382EF90E0AA
:10196000909387018093860183EF90E090938501A7
:101970008093840181E0F8018383C8010E94E80418
:10198000882309F498C28EEF898321E041E050E07A
:10199000BE016F5F7F4F8091E1029091E2020E9451
:1019A000460662E370E080E090E00E94D7020E9469
:1019B00096068A3309F07FC28AEF89838FE08A8393
:1019C00008E010E09E012F5F3F4F42E050E0B90178
:1019D0008091E1029091E2020E94760629818B813A
:1019E00090E0B0E0A0E0DC0199278827B22B2F819E
:1019F000822B2D81922B8093D6029093D702A093B5
:101A0000D802B093D9028CEF898389EC8A8306E0EF
:101A100010E09E012F5F3F4F42E050E0B9018091FE
:101A2000E1029091E2020E94760629813A81822F9A
:101A300090E0B0E0A0E0B82FAA2799278827A32B31
:101A40003E81832B3D81932B8093DA029093DB02BE
:101A5000A093DC02B093DD02243109F41DC250F4DE
:101A6000222369F081E090E02D3009F417C284E070
:101A700090E014C2253109F416C22F3FC1F710922D
:101A8000DF021092DE0284E8898388EB8A8301E01A
:101A900010E09E012F5F3F4F42E050E0B90180917E
:101AA000E1029091E2020E9476068981803209F477
:101AB000FDC18F3F09F0FCC181E08093E00261E04D
:101AC00082E00E94810261E083E00E94810261E085
:101AD00087E00E94810260E089E00E94810260E06C
:101AE00088E00E94810223EFF22E35EFE32E00E022
:101AF00010E046EED42E89E00E942A025C0188E0C4
:101B00000E942A024C01F9821A821B8221E041E0E4
:101B100050E0BE016F5F7F4F8091E1029091E20241
:101B20000E944606882309F4CEC164E170E080E09B
:101B300090E00E94D7028FB7F894409088015090AF
:101B4000890160908A0170908B018FBF2FB7F89444
:101B50008091880190918901A0918A01B0918B01B7
:101B60002FBF84199509A609B70984369105A105E7
:101B7000B10508F0A8C143E050E0BE016F5F7F4FA0
:101B80008091E1029091E2020E942105882309F4EC
:101B900093C169817A8176276727762790E080E074
:101BA0000E94AA0F22E538EB4FE253E40E940B108B
:101BB00020E030E040E857E30E940B1026E636E6CE
:101BC0004BE352E40E94631142E00E9437078AE22D
:101BD00091E00E94B406E9821A821B8221E041E072
:101BE00050E0BE016F5F7F4F8091E1029091E20271
:101BF0000E944606882309F472C164E170E080E027
:101C000090E00E94D7028FB7F894409088015090DE
:101C1000890160908A0170908B018FBF2FB7F89473
:101C20008091880190918901A0918A01B0918B01E6
:101C30002FBF84199509A609B70984369105A10516
:101C4000B10508F04CC143E050E0BE016F5F7F4F2B
:101C50008091E1029091E2020E942105882309F41B
:101C600037C169817A8176276727762790E080E0FF
:101C70000E94AA0F20E030E04AEF52E40E940B10CD
:101C800020E030E040E857E30E940B1020E030E015
:101C900040EC50E40E9463112B013C0120E030E055
:101CA00048EC52E40E947112181634F4412C512C65
:101CB00098EC692E92E4792E42E0C301B2010E94B1
:101CC00037078AE291E00E94B406C4010E9405072A
:101CD000C5010E94050762E370E080E090E00E9489
:101CE000D70280918F018F5F80938F018E31F1F445
:101CF000B0908E0181E0B826B0928E010E949606C7
:101D0000BB2009F4F3C08460D9828A8321E042E0D9
:101D100050E0BE016F5F7F4F8091E1029091E2023F
:101D20000E9446060E94960610928F0160E087E0AE
:101D30000E94530282E092E00E9452011816190696
:101D40000CF098C061E087E00E94530282E092E0CC
:101D50000E943001982E80938D0189831A82A09071
:101D6000C802B090C902FFEFAF1ABF0AC5010E94B6
:101D70001308882399F02091C4023091C502809104
:101D8000C8029091C902BE016F5F7F4F820F931FFF
:101D90000E947814B092C902A092C8028AE09812F8
:101DA00069C08091C8029091C902892B31F0E091FD
:101DB000C402F091C502309721F410928C01ECE836
:101DC000F1E08081813609F493C0883709F495C029
:101DD0008091C8029091C902029738F0E091C40244
:101DE000F091C502309709F08AC010928C01ECE89E
:101DF000F1E08081823609F484C0883709F486C016
:101E00008091C8029091C902039738F0E091C40212
:101E1000F091C502309709F07BC010928C01ECE87C
:101E2000F1E08081833609F475C0883709F477C002
:101E300090E080E00E9413082091C4023091C50216
:101E4000811170C02115310519F0C9010E942913B3
:101E50001092C5021092C4021092C9021092C802D8
:101E60001092C7021092C6026EE170E080E090E02E
:101E70000E94D7026EE170E080E090E00E94D702FD
:101E80000115110509F437CE0E945E01882309F47B
:101E900032CE0E9400002FCE82E090E09093DF02CD
:101EA0008093DE02F0CD83E090E0F8CF82E005CEB3
:101EB0001092E00204CEFFCF66E070E080E090E098
:101EC0000E94D70243CE60E070E080EC9FE77CCEBA
:101ED00066E070E080E090E00E94D7029FCE412C47
:101EE000512C80EC682E8FE7782EE6CE8B7F0CCFBE
:101EF00061E082E00E9453026BCF60E0FACF31963E
:101F000078CF61E083E00E9453027ACF60E0FACF9D
:101F1000329687CF84EB90E00E948D0089CF90E0CD
:101F200080E0FACF1092C9021092C8026CE271E010
:101F3000C9010E94781498CF8091C4029091C50283
:101F4000009711F00C94291308950E94E70F08F4EC
:101F500081E00895E89409C097FB3EF49095809540
:101F6000709561957F4F8F4F9F4F9923A9F0F92F5F
:101F700096E9BB279395F695879577956795B795DD
:101F8000F111F8CFFAF4BB0F11F460FF1BC06F5FC3
:101F90007F4F8F4F9F4F16C0882311F096E911C0D5
:101FA000772321F09EE8872F762F05C0662371F0F6
:101FB00096E8862F70E060E02AF09A95660F771F0A
:101FC000881FDAF7880F9695879597F90895990FE6
:101FD0000008550FAA0BE0E8FEEF16161706E807F3
:101FE000F907C0F012161306E407F50798F0621B14
:101FF000730B840B950B39F40A2661F0232B242BE9
:10200000252B21F408950A2609F4A140A6958FEF07
:10201000811D811D08950E941E100C948F100E9436
:10202000811038F00E94881020F0952311F00C9454
:1020300078100C947E1011240C94C3100E94A010F0
:1020400070F3959FC1F3950F50E0551F629FF0010B
:10205000729FBB27F00DB11D639FAA27F00DB11D24
:10206000AA1F649F6627B00DA11D661F829F2227AD
:10207000B00DA11D621F739FB00DA11D621F839F34
:10208000A00D611D221F749F3327A00D611D231F0A
:10209000849F600D211D822F762F6A2F11249F5758
:1020A00050409AF0F1F088234AF0EE0FFF1FBB1F5B
:1020B000661F771F881F91505040A9F79E3F51051A
:1020C00080F00C9478100C94C3105F3FE4F3983EBA
:1020D000D4F3869577956795B795F795E7959F5FC4
:1020E000C1F7FE2B880F911D9695879597F9089556
:1020F00097F99F6780E870E060E008959FEF80ECBB
:10210000089500240A94161617061806090608955D
:1021100000240A9412161306140605060895092EC3
:102120000394000C11F4882352F0BB0F40F4BF2B32
:1021300011F460FF04C06F5F7F4F8F4F9F4F089572
:1021400057FD9058440F551F59F05F3F71F0479568
:10215000880F97FB991F61F09F3F79F0879508954D
:10216000121613061406551FF2CF4695F1DF08C06C
:10217000161617061806991FF1CF86957105610589
:1021800008940895E894BB2766277727CB0197F931
:102190000895052E97FB1EF400940E94E01057FD51
:1021A00007D00E94321107FC03D04EF40C94E010CB
:1021B00050954095309521953F4F4F4F5F4F089573
:1021C00090958095709561957F4F8F4F9F4F0895A3
:1021D0000E945411A59F900DB49F900DA49F800D57
:1021E000911D11240895B7FF0C94E8100E94E81087
:1021F000821B930B08952F923F924F925F926F92A2
:102200007F928F929F92AF92BF92CF92DF92EF9286
:10221000FF920F931F93CF93DF93CDB7DEB7CA1B07
:10222000DB0B0FB6F894DEBF0FBECDBF09942A8832
:10223000398848885F846E847D848C849B84AA84DA
:10224000B984C884DF80EE80FD800C811B81AA8167
:10225000B981CE0FD11D0FB6F894DEBF0FBECDBF32
:10226000ED010895A1E21A2EAA1BBB1BFD010DC0B2
:10227000AA1FBB1FEE1FFF1FA217B307E407F50736
:1022800020F0A21BB30BE40BF50B661F771F881F12
:10229000991F1A9469F760957095809590959B01A8
:1022A000AC01BD01CF010895A29FB001B39FC00151
:1022B000A39F700D811D1124911DB29F700D811D72
:1022C0001124911D08955058BB27AA270E947B1105
:1022D0000C948F100E94811038F00E94881020F01A
:1022E00039F49F3F19F426F40C947E100EF4E09517
:1022F000E7FB0C947810E92F0E94A01058F3BA174E
:10230000620773078407950720F079F4A6F50C940B
:10231000C2100EF4E0950B2EBA2FA02D0B01B901BF
:1023200090010C01CA01A0011124FF27591B99F04B
:10233000593F50F4503E68F11A16F040A22F232F57
:10234000342F4427585FF3CF469537952795A795A7
:10235000F0405395C9F77EF41F16BA0B620B730B4E
:10236000840BBAF09150A1F0FF0FBB1F661F771FBF
:10237000881FC2F70EC0BA0F621F731F841F48F474
:10238000879577956795B795F7959E3F08F0B0CFFD
:102390009395880F08F09927EE0F979587950895E4
:1023A0000E94E4110C948F100E94881058F00E9433
:1023B000811040F029F45F3F29F00C9478105111FE
:1023C0000C94C3100C947E100E94A01068F3992303
:1023D000B1F3552391F3951B550BBB27AA27621721
:1023E0007307840738F09F5F5F4F220F331F441F2E
:1023F000AA1FA9F335D00E2E3AF0E0E832D0915062
:102400005040E695001CCAF72BD0FE2F29D0660F4E
:10241000771F881FBB1F261737074807AB07B0E891
:1024200009F0BB0B802DBF01FF2793585F4F3AF097
:102430009E3F510578F00C9478100C94C3105F3FC8
:10244000E4F3983ED4F3869577956795B795F7951D
:102450009F5FC9F7880F911D9695879597F9089505
:10246000E1E0660F771F881FBB1F621773078407A1
:10247000BA0720F0621B730B840BBA0BEE1F88F7B0
:10248000E09508950E94A81088F09F5798F0B92F02
:102490009927B751B0F0E1F0660F771F881F991F99
:1024A0001AF0BA95C9F714C0B13091F00E94C21069
:1024B000B1E008950C94C210672F782F8827B85F79
:1024C00039F0B93FCCF3869577956795B395D9F7F1
:1024D0003EF490958095709561957F4F8F4F9F4FFB
:1024E00008950E94E70F08F48FEF08950E94E70F08
:1024F000880B990B0895991B79E004C0991F9617D2
:1025000008F0961B881F7A95C9F780950895EE0FFD
:10251000FF1F0590F491E02D09940F931F93CF9323
:10252000DF938230910510F482E090E0E091E802C0
:10253000F091E90230E020E0B0E0A0E0309799F4BB
:102540002115310509F44AC0281B390B2430310507
:10255000D8F58A819B816115710589F1FB0193830F
:102560008283FE0111C0408151810281138148178D
:102570005907E0F04817590799F4109761F012963F
:102580000C93129713961C933296CF01DF91CF9143
:102590001F910F9108950093E8021093E902F4CF80
:1025A0002115310551F04217530738F0A901DB011D
:1025B0009A01BD01DF01F801C1CFEF01F9CF90937E
:1025C000E9028093E802CDCFFE01E20FF31F819371
:1025D00091932250310939832883D7CF2091E60285
:1025E0003091E702232B41F4209102013091030145
:1025F0003093E7022093E60220910001309101011F
:102600002115310541F42DB73EB740910401509199
:102610000501241B350BE091E602F091E702E21779
:10262000F307A0F42E1B3F0B2817390778F0AC01F5
:102630004E5F5F4F2417350748F04E0F5F1F5093D2
:10264000E7024093E602819391939FCFF0E0E0E0B0
:102650009CCFCF93DF930097E9F0FC013297138270
:102660001282A091E802B091E902ED0130E020E091
:102670001097A1F420813181820F931F2091E602EF
:102680003091E7022817390709F061C0F093E7029B
:10269000E093E602DF91CF910895EA01CE17DF07BC
:1026A000E8F54A815B819E0141155105B1F7E901C9
:1026B000FB83EA8349915991C40FD51FEC17FD079D
:1026C00061F4808191810296840F951FE9019983BD
:1026D0008883828193819B838A83F0E0E0E0129675
:1026E0008D919C9113970097B9F52D913C9111977D
:1026F000CD010296820F931F2091E6023091E702EE
:102700002817390739F6309751F51092E9021092DF
:10271000E802B093E702A093E602BCCFD383C28362
:1027200040815181840F951FC817D90761F44E5F0E
:102730005F4F88819981480F591F518340838A8157
:102740009B81938382832115310509F0B0CFF093EB
:10275000E902E093E8029ECFFD01DC01C0CF1382C5
:102760001282D7CFB0E0A0E0E8EBF3E10C94FD10CB
:102770008C01009751F4CB010E948D128C01C8018D
:10278000CDB7DEB7E0E10C941911FC01E60FF71F9D
:102790009C0122503109E217F30708F49DC0D901CA
:1027A000CD91DC911197C617D70798F0C530D105A8
:1027B00030F3CE0104978617970708F3C61BD70B93
:1027C0002297C193D1936D937C93CF010E942913DB
:1027D000D6CF5B01AC1ABD0A4C018C0E9D1EA09198
:1027E000E802B091E902512C412CF12CE12C109718
:1027F00031F58091E6029091E7028815990509F07C
:102800005CC04616570608F058C0809100019091B0
:102810000101009741F48DB79EB74091040150919A
:102820000501841B950BE817F90708F055C0F093D4
:10283000E702E093E602F90171836083A0CF8D91F6
:102840009C91119712966C90129713967C90139707
:10285000A815B90559F56C0142E0C40ED11CCA1483
:10286000DB0420F1AC014A195B09DA0112961597D5
:1028700080F06282738251834083D9016D937C938F
:10288000E114F10471F0D7011396FC93EE931297C3
:1028900076CF22968C0F9D1FF90191838083F301DF
:1028A000EFCFF093E902E093E80269CF48165906AA
:1028B00008F42C017D01D3019ACFCB010E948D1227
:1028C0007C01009749F0AE01B8010E946F14C80165
:1028D0000E942913870153CF10E000E050CFFB0185
:1028E000DC0102C001900D9241505040D8F708958C
:1028F000FB01DC0101900D920020E1F7089510E04A
:10290000C2E6D0E004C0FE010E9487122196C336C1
:08291000D107C9F7F894FFCFCD
:102918000000EA028000000000009401F400210198
:10292800E10152013001440100000000B6048904AD
:10293800E5045F0482046F0460040D0A006E616E92
:0A29480000696E66006F76660000FD
:00000001FF
